:020000040000FA
:1000000080080020D5000000EF000000E50F000090
:1000100000000000000000000000000000000000E0
:10002000000000000000000000000000F3000000DD
:100030000000000000000000F5000000BD100000FE
:10004000331000003B100000431000004B10000074
:10005000790C0000EB070000D11A0000D91A00004B
:10006000231000002B1000005B1000006310000044
:10007000FB0F000003100000D3070000DB070000A7
:10008000E30700001B1000006F0E0000830E00004D
:100090000B1000006D210000131000005310000031
:1000A000CB070000F90000005D210000F90000000E
:1000B000650C0000F3070000630E00006D0C0000EB
:1000C0000348854600F0F6FA00480047BD070000E7
:1000D0008008002009480A4A002100A1814200D975
:1000E0000244084802600848804708480047FEE785
:1000F000FEE7FEE7FEE7FEE7FEE700000000002067
:100100000000000008ED00E035170000C10000000D
:10011000F0B51FB40646002082B005464024019188
:1001200000901BE0019922460F46304600F048F847
:10013000049A059B801A994110D31046194622460D
:1001400000F02EF8361A8F41019722460120002137
:10015000009F00F025F838184D4100902046641E9D
:100160000028DFDC019B00982946324607B0F0BD2D
:1001700030B5434351435C18010C130C0D465D43ED
:100180002C1980B292B20546554351430A0C09041A
:100190004D1962415843010C00044019514130BDD2
:1001A00010B5202A04DB0146203A9140002010BD02
:1001B000914020239C1A0346E3401943904010BD10
:1001C00010B5202A04DB0846203AD040002110BD9B
:1001D0000B46D340D0402024A21A91400843194630
:1001E00010BDD2B201E00270401C491EFBD2704724
:1001F0000022F6E710B513460A4604461946FFF7F3
:10020000F0FF204610BD024670B54A40D30FDB0711
:1002100040002DD04A002AD0010E140E0002120216
:100220000919400A520A8418E50104465443000A99
:10023000120A2E045043A4194219200CC543AA18CF
:10024000120C0125AD03521C521912047F392404EB
:1002500000D0521C104301D44000491EC2B20C060B
:10026000C0092018401C4008802A02D003E000206A
:1002700070BD40084000002900DA0020184370BD1E
:1002800070B502464A40D50F40004A00ED074008CD
:100290005208002814D0002A12D0C40DD30D4102F8
:1002A0000120C0055202490A520AE41A091812181C
:1002B0007D34914201D3641C00E04900002C01DA36
:1002C000002070BD0023914201D3891A03434008E6
:1002D00049000028F7D100290AD0914202D101211A
:1002E000C90705E0914201D2012101E00121C94382
:1002F000E005C018401900F083F870BD10B5002269
:100300009623114600F084F810BD00004A0009034E
:100310000123090B1B051943094B10B5520D9A42D5
:1003200001DA002010BD064B34339A4203DC9A1ADE
:10033000FFF746FF10BD03495118884010BD00006B
:10034000FF030000CDFBFFFFC20FD20740004008B3
:100350000BD0C10D0723DB01C91840020905400A73
:100360001143C208400711437047002001467047FF
:1003700070B50446002903D000202022012310E09C
:10038000002801D00020C043C046C0460DE02546ED
:10039000D5408D4205D30D469540641B1D469540C2
:1003A00040191546521E002DF1DC214670BD00009B
:1003B00070B5002504462E46002911D0002C01DA24
:1003C00001254442002901DA012649422046FFF76F
:1003D000CFFFB54200D04042002D00D0494270BD51
:1003E000002C02DA0121C90702E0002C00DD0349DC
:1003F0000846C046C046214670BD0000FFFFFF7F93
:10040000002904DA401C490001D14008400070472F
:1004100070B40024050C05D11024000402D1002979
:1004200021D01124050E01D100020834050F01D19D
:100430000001241D850F01D18000A41C002801DBD0
:100440004000641C002908D020252E1B0D46F540D5
:10045000A14000D001212943084301061B1B000ACB
:10046000DB1D02D5002070BC7047DB051818801812
:100470000029F8DA401C4900F5D170BC4008400062
:1004800070470000F0B507460846584087B0C00FD7
:10049000049048000E46590040084908BC1A88419B
:1004A00005D2384631461E4617460B4602465800CE
:1004B000400810434CD0300D039040055900400DCA
:1004C000490D0590401A0290402872DA1803012164
:1004D000000B09050843019004980092002805D0FC
:1004E00001995242002088410092019002984021D7
:1004F0000A1A01990098FFF753FE05460C466B4611
:1005000007CB00F0E9F8C0197141039A0E0D0023E2
:10051000D71756401A467A40164344D0049A002A08
:100520002DD0029A012A039A15DC1205C01A9141B6
:1005300001263605001C7141D20F059ED20700939B
:10054000019202962A46234600F0E6F807B0F0BD75
:1005500038463146FAE71605224A0F46B218C01A45
:10056000B74101210905001C4F4100187F41114688
:1005700018187941E20F10436D19644113E0E20746
:100580006D0815436408C2071443039A0126120537
:10059000C01A91413605001C7141CE074008304316
:1005A0004908C01851412A46234600F0A8F8CDE773
:1005B000FFE7049801224000C117121A00238B4163
:1005C00004983146C417381AA141EEE730B401242B
:1005D000E407634030BC55E730B40124E4076140D0
:1005E00030BC4FE70000E0FFF8B505464800400882
:1005F0000C46284304D06000184A400D904201DDAB
:100600002846F8BD15493539884210DC88420BDB95
:10061000290D200308432903014305D0E00F1049A9
:10062000C00741180020F8BD00200146F8BD161A89
:100630004020821B28462146FFF7B2FD0746009165
:10064000284621463246FFF7BBFD3A46009B00F0A4
:1006500056F83246FFF7A4FDF8BD00003304000051
:100660000000F03F10B5002904DB0124E4074042FC
:100670008C412146002B04DB1C460123DB07524240
:10068000A3418B4200D1824210BD000010B5002969
:1006900004DB0124E40740428C412146002B04DBAB
:1006A0001C460123DB075242A341994200D19042EC
:1006B00010BD0000064C0125064E05E0E36807CC9E
:1006C0002B430C3C98471034B442F7D3FFF7FCFCA3
:1006D000D43B0000F43B000010B5202A06DBCB170A
:1006E0000846203A1041C1170B4306E00B46134160
:1006F000D0402024A21A91400843194610BD10B5DD
:10070000002B08DA0024401C614192185B411A4317
:1007100001D14008400010BDF0B51FB482B00546BD
:100720000C0003D0084602F00EFC02E002F00BFCC5
:1007300020300246009021462846FFF731FD049BF9
:10074000059A04460F4618431143084314D018462F
:1007500010431BD0009840210A1A18460599FFF74C
:100760002FFD05460E46009A05990498FFF718FDDF
:10077000084305D0012004E02046394607B0F0BD0B
:100780000020C11705430E432C43374300990E98B0
:100790006305401A7905E40A00220C43FD0A0A3079
:1007A00002D500200146E9E70105101969410C9CBA
:1007B0000D9D00196941FFF7A2FFDFE780B500F04A
:1007C000B9FF02F029FA002080BD80B5C046C046BE
:1007D00080BD80B5C046C04680BD80B5C046C0461D
:1007E00080BD80B5C046C04680BD80B500F0EEFF3C
:1007F00080BD80B5C046C04680BD000010B587B042
:10080000009101460098069105A9088004A802708D
:1008100000220392069AE04BD2180292029A0192A9
:100820000B88019A11682A4C2140C918116002787E
:100830000199C868D207120E802398438018C860B7
:10084000039807B010BDC04686B00590049103A878
:100850000280002002900598CF494018019001982D
:1008600000900498002809D1FFE703A802880099A6
:10087000C86B174B18408018C86310E00498012813
:1008800009D1FFE703A802880099086C104B1840B3
:100890008018086402E001200290FFE7FFE7029859
:1008A00006B0704785B0049003A801800021029132
:1008B0000499EB4A891801910199009102880099E5
:1008C0004868034B184080184860029805B070478C
:1008D0000000FFFFB0B585B00490039100200290A6
:1008E0000498DF494018019001980090039802781D
:1008F0000099C868D207120D174B18408018C860BD
:10090000039842780099C868D207520B0124A504C5
:10091000A8438018C860039882780099486AD20773
:10092000520DA402A043801848620398C27800992F
:10093000486AD207120D184080184862039842682E
:1009400000998869D207120F08239843801888619C
:10095000029805B0B0BDC046FFF7FFFFB0B587B045
:10096000009101460098069105A9087004A802703C
:1009700000220392069ABA4BD2180292029A01926E
:100980000B78019A116BDB07DC0C01231D03A943D3
:100990000919116302780199086BD207120DDB0265
:1009A000984380180863039807B0B0BDB0B585B010
:1009B00004900391002002900498A94940180190E6
:1009C000019800900099486A102290434862039869
:1009D00042680099C86907231A4098438018C86183
:1009E000039882680099C869D207120F08239843B8
:1009F0008018C8610398027B0099486AD207520E9A
:100A00004023984380184862039802690099C86897
:100A10009207520A03235C05A0438018C860009A1D
:100A2000506A20218843506203988469009AD069F3
:100A30006407640E7025A8430019D0610398C46947
:100A4000009AD069E407250E8024E4432040401931
:100A5000D0610398425C0099486AD207120E204088
:100A6000801848620398426A0099486A9207920C7B
:100A70001B03984380184862029805B0B0BDC04679
:100A800084B00390002002900398754940180190AB
:100A9000019800900099C86801221043C86002982C
:100AA00004B07047B0B588B0009202460098079233
:100AB00006AA117005A9087004A803700023039307
:100AC000079B674C1B190293029B01931478019BAF
:100AD0005A6BFF25AA4312195A630B78019A516B7E
:100AE000DB07DC0D01231D02A943091951630278BC
:100AF0000199486BD207920D5B02984380184863B6
:100B0000039808B0B0BDC04684B0039000200290A6
:100B10000398534940180190019800900099C868C3
:100B200001229043C860029804B0704785B00490D9
:100B300003910020029004984949401801900198BF
:100B40000090039802780099086AD207120E802359
:100B5000984380180862039842780099086A012334
:100B60001A40984380180862039882780099086AAE
:100B7000D207920F02239843801808620398C27824
:100B80000099086AD207D20E102398438018086291
:100B9000029805B07047C0460030004010B585B0DF
:100BA000049003910020029004982D494018019070
:100BB00001980090039802680099C8689207920C07
:100BC00003231B0398438018C86003988268009928
:100BD000C8685207520E702398438018C860039863
:100BE000C2680099C868D207520F0423984380183E
:100BF000C860039802690099C868D207920F02235F
:100C000098438018C860039842690099C868D20761
:100C1000120F082398438018C8600398027E009939
:100C2000C868D207520C01239C03A0438018C860F7
:100C30000398427E0099C868D207920B5C04A043D7
:100C40008018C860039842680099C868D2071209E2
:100C5000DB0698438018C860029805B010BDC046F6
:100C60000030004080B5C046C04680BD80B5C0465B
:100C7000C046C046C04680BD80B500F0A9F880BD22
:100C800082B001900198644940180090009908686A
:100C9000072212049043086002B07047494908686F
:100CA0000122D207104308607047C04682B001900D
:100CB0000198414940180090009908680122D20724
:100CC0001043086002B0704782B001900198524909
:100CD00040180090009908680122D204104308606F
:100CE00002B0704710B585B003900291FFE7FFE7AF
:100CF000FFE7FFE7FFE7FFE7FFE7FFE7FFE7FFE7C4
:100D0000FFE7FFE7FFE7FFE7FFE7FFE7FFE7FFE7B3
:100D10000298002803D1FFE70420049049E00398DB
:100D20003D4940180190019900200860029A009204
:100D3000116893681943D3681943136919435369B8
:100D4000194393691943D3691943926A1143019A6C
:100D500011600399184A89180191019A1168174B7B
:100D6000194011600299CA88531E8A881204144CD3
:100D700012191343096B89050B43019A1168194332
:100D800011600299CB6A0F4A1168194311600399E7
:100D90000D4A891801910299096A019A1160039913
:100DA0000A4A891801910299496A019A11600490CE
:100DB000FFE7049805B010BD10100240000030E0BD
:100DC0000000FFFF00100240181002401C100240FB
:100DD00080B5114800680003C00F002818D0FFE755
:100DE000FFE70E4800684007C00F002801D1FFE769
:100DF000F7E70B4908680122930318430860094983
:100E000008681203904308600020FFF77DFEFFE7AB
:100E10000020FFF735FF80BD141002401030004065
:100E2000241C02403030004080B584B00390029111
:100E300001A800900270039801F0A8F903980299A4
:100E400001F0DEF900980078012804D1FFE703984B
:100E500001F0C4F903E0039801F0AAF9FFE704B038
:100E600080BD80B5C046C046C046C04680BD80B586
:100E7000C046C046C046C046C046C046C046C04642
:100E800080BD80B5C046C046C046C046C046C046CC
:100E9000C046C04680BD000082B00190009101981C
:100EA000C06900998A00394989580840411E884123
:100EB00002B0704784B003900291019202988100C1
:100EC000324840580090009A03990868904308609F
:100ED0000298072809D8FFE7029880000F22824075
:100EE0000399086B9043086309E00298800020385A
:100EF0000F2282400399486B90434863FFE70398B1
:100F0000006A0099884301990978029A9140084340
:100F100003990862039840680099884301994968D9
:100F2000029A914008430399486003980069009928
:100F3000884301998968029A91400843039908619E
:100F400003988069009988430199C968029A914081
:100F500008430399886103988069009909048843CC
:100F600001990969029A10329140084303998861F6
:100F7000039880680099884301994969029A9140D1
:100F8000084303998860002004B07047843B000048
:100F900084B0039002910192029807280FD8FFE7CE
:100FA0000298800000900398006B009A0F219140F6
:100FB0008843019991400843039908630FE0029820
:100FC0008000203800900398406B009A0F219140D8
:100FD000884301999140084303994863FFE7002043
:100FE00004B0704781B000200090FFE7009800280F
:100FF00001D1FFE7FAE701B0704780B5C046C046AF
:1010000080BD80B5C046C04680BD80B5C046C046E4
:1010100080BD80B5C046C04680BD80B5C046C046D4
:1010200080BD80B5C046C04680BD80B5C046C046C4
:1010300080BD80B5C046C04680BD80B5C046C046B4
:1010400080BD80B5C046C04680BD80B5C046C046A4
:1010500080BD80B5C046C04680BD80B5C046C04694
:1010600080BD80B5C046C04680BD000080B584B05C
:1010700002900298401E000E002803D0FFE70120D6
:10108000039011E00298401E094908600020019079
:10109000C043032101F0ECF8019806490860064AB4
:1010A000072111600390FFE7039804B080BDC0469C
:1010B00014E000E018E000E010E000E080B500F08F
:1010C00001F880BD80B501F093FC01460248016043
:1010D000006801F085FB80BD2400002080B58CB045
:1010E0000691014606980B910AA908700020099004
:1010F0000878421E904108707748006808900B9865
:101100000790042800D9DEE00798810001A040582C
:101110008746C046291100006B110000C511000070
:101120000B1200006712000001F024F80AA80278F0
:101130006C49086801231A40984380180860FFE74B
:10114000694801680020C9070029059006D1FFE71A
:101150000AA80078411E88410590FFE70598C0075E
:10116000002801D0FFE7EBE7B0E05B490868082200
:10117000104308605E49086803221043086000F0CD
:10118000F9FF0AA8027857490868D207920F02238C
:10119000984380180860FFE7534800688007C10F34
:1011A00000200029049006D1FFE70AA80078411E1C
:1011B00088410490FFE70498C007002801D0FFE7AA
:1011C000EAE783E000F0D6FF0AA8027845490868FC
:1011D000D207520F0423984380180860FFE7424863
:1011E00000684007C10F00200029039006D1FFE7E7
:1011F0000AA80078411E88410390FFE70398C007C2
:10120000002801D0FFE7EAE760E0334908680422DC
:1012100010430860354908680322920310430860B0
:1012200000F0A8FF0AA802782E490868D207120F1A
:101230000823984380180860FFE72B4800680007E0
:10124000C10F00200029029006D1FFE70AA800780C
:10125000411E88410290FFE70298C007002801D094
:10126000FFE7EAE732E01D4908680122130418434A
:1012700008601B49086810430860022001F0F0F97B
:1012800000F078FF0AA8027816490868D207D20E43
:101290001023984380180860FFE713480068C006D1
:1012A000C10F00200029019006D1FFE70AA80078AD
:1012B000411E88410190FFE70198C007002801D036
:1012C000FFE7EAE702E004200990FFE708980249F7
:1012D000086009980CB080BD3420004030200040E8
:1012E00000250040082000402C2000400020024043
:1012F0000024024080B586B04748008805A90880D0
:101300008148006807210840012803D1FFE7D04841
:101310000490FFE77C48006807210840022812D1AA
:10132000FFE705A800883D4909683D4A1140884209
:1013300004D1FFE70120C003049003E04B204002EA
:101340000490FFE7FFE7ED48006807210840032805
:1013500004D1FFE70120C0030490FFE7E7480068DD
:1013600007210840042838D1FFE7C14800688007FA
:10137000002803D1FFE7B748049002E0B448049086
:10138000FFE70498BA4900910968042211408908CE
:10139000491CFEF7EDFF00990390039A08687F232C
:1013A0001B021840000A801C50430290039A0868F0
:1013B00007231B041840000C5043C00801900298FA
:1013C000019A801809680F2212051140090D891C25
:1013D000FEF7CEFF40080490FFE7C84800684007CA
:1013E00000280DD1FFE79B4804900498E449096860
:1013F0004907CA0E0B498958FEF7BAFF0490FFE768
:101400000498BE49096838221140C908C8400490B0
:10141000049806B080BDC046EA1B1000282000409A
:10142000FF030000C43B000080B582B000200190A3
:10143000FFF760FF01900198B04909680906890F1C
:10144000C8400190019802B080BDC04682B00190B2
:10145000002000900198202812D3FFE70198202156
:10146000884301900198012213468340124908687D
:10147000984308600198824008681043086015E0AE
:1014800001981E280ED8FFE70198012213468340D9
:10149000084908689843086001988240086810432A
:1014A000086002E001200090FFE7FFE7009802B02B
:1014B0007047C046382000403C20004080B582B0D4
:1014C000019000F057FE019A8C4908685207920E6D
:1014D000382398438018086000F012F9002002B009
:1014E00080BDC04680B582B0019000F043FE019AF5
:1014F000824908689207120EC0239843801808603A
:10150000002002B080BDC0460020004080B586B0FB
:1015100004900020039004980079002805D0FFE78C
:1015200004980079032803D3FFE7042005908CE09A
:101530000498007B022805D3FFE70498007B8128EC
:1015400003D3FFE7042005907FE00498407B082840
:1015500003D3FFE70420059077E00498807B0428FC
:1015600005D3FFE70498807B232803D3FFE70420FB
:1015700005906AE00498807BC007002803D0FFE74D
:101580000420059061E004980068002803D1FFE77B
:101590003048029002E02E480290FFE7029804993A
:1015A0000979FEF7E5FE0290029A0499087B504300
:1015B000497B5143C9084018019001982649884247
:1015C00003D8FFE7042005903FE0019823498842B3
:1015D00003D3FFE70420059037E001980499897B45
:1015E000FEF7C6FE009000981D49884203D8FFE729
:1015F0000420059029E000981A49884203D3FFE7A8
:101600000420059021E0049908680A799200121FCD
:1016100010430A7B1202144BD21810434A7B120467
:101620001043897BC9047F22120511400F4A891893
:1016300008430F490860086870229043049A926832
:101640001043086003980590FFE7059806B080BD39
:1016500000127A00001BB700FF5FE3160180841EB2
:10166000BFE1E4000190D00300FEFFFF0000E0FFB7
:101670002020004082B001906846017001A80078E7
:101680008006002810D5FFE70198202188430190AB
:101690000E490868019B01229A4090436A461278DD
:1016A0009A40104308600BE007490868019B01223B
:1016B0009A4090436A4612789A4010430860FFE7C8
:1016C000002002B07047C046302000403420004067
:1016D00080B584B00390002002900398019000F040
:1016E00049FD019A0549086807231A409843801864
:1016F000086000F005F8029804B080BD00200040AA
:1017000080B5FFF7F7FD06490860064906480860FE
:1017100006490020086006490520086080BDC046D3
:101720000000002014E000E0FFFFFF0018E000E0F0
:1017300010E000E080B50C4802880C4908680C4BAA
:101740001A400C4B1840801808600B4800880B4961
:1017500008600B4908680222104305229043086084
:10176000FFF7CEFF80BDC046EA1B100028200040D6
:10177000FF03000000FCFFFFE01B100024200040DE
:101780001020004081B000200090094908600098B6
:1017900001B0704782B001900020009001980122B2
:1017A00082400349086890430860009802B070477F
:1017B0001458004081B00090034800680099C84068
:1017C0000121084001B070471058004080B510203A
:1017D000FFF7F0FF012808D1FFE70B490868401C1C
:1017E00008601020FFF7D6FFFFE71120FFF7E2FFA8
:1017F000012808D1FFE704490868401E086011204D
:10180000FFF7C8FFFFE780BD1000002010B583B0D0
:101810000A4602A9088001A80270002200920B88E3
:10182000084A1168114C2140C91811600278A74973
:101830000868D207120E8023984380180860009829
:1018400003B010BD0058004082B0014601A80180DD
:1018500000210091028804490868044B1840801850
:101860000860009802B07047045800400000FFFF75
:1018700082B0019000200090019802681249086827
:10188000D207D20E1023984380180860019842684E
:10189000086807231A4098438018086001988268F6
:1018A00008685207520D1B0298438018086001987F
:1018B000C26808685207120EE02398438018086037
:1018C000009802B07047C0461858004081B0002010
:1018D00000907E490868012210430860009801B01A
:1018E0007047C04683B0029000200190029800909B
:1018F000132800D985E00098810001A04058874650
:1019000051190000031A00005F1900007B19000044
:10191000971900006D19000089190000A519000031
:10192000031A0000031A0000031A0000031A000043
:10193000031A0000031A0000B3190000C1190000C7
:10194000CF190000DD190000EB190000F7190000A5
:101950005E490868012292021043086054E0304951
:10196000086801221202104308604DE02C49086803
:10197000012252021043086046E02849086801220B
:101980001202104308603FE0244908680122520215
:101990001043086038E02049086801221202104311
:1019A000086031E01C4908680122520210430860B7
:1019B0002AE046490868012212051043086023E026
:1019C000424908680122D204104308601CE03F49E4
:1019D0000868012212071043086015E03B490868B7
:1019E0000122D202104308600EE00A490868022270
:1019F0001043086008E006490868022210430860A6
:101A000002E001200190FFE7019803B07047C04653
:101A100060580040585800402C580040285800405A
:101A20002458004010B582B0019000200090019829
:101A30000268264908689207920C03231B03984307
:101A4000801808600198826808685207520E702357
:101A50009843801808600198C2680868D207520F3E
:101A60000423984380180860019802690868D20727
:101A7000920F022398438018086001984269086811
:101A8000D207120F08239843801808600198027E3D
:101A90000868D207520C01239C03A04380180860F9
:101AA0000198427E0868D207920B5C04A04380181C
:101AB0000860019842680868D2071209DB0698435B
:101AC00080180860009802B010BDC0460C58004055
:101AD00080B5C046C04680BD80B500F0B9FA80BD73
:101AE000B0B5BCB0409C3A90399138923793002100
:101AF0000F912B912991289127912691259124913D
:101B000023912291219120911F911E911D911C9151
:101B10001B911A9119911891179116911591149181
:101B20001391129111911091379835913490389802
:101B300033913290339932980843002800D1B4E1B0
:101B400039980E90042821D80E98810001A04058A1
:101B50008746C046691B00007F1B0000851B0000F4
:101B60007F1B0000691B00004098002803D1FFE79D
:101B700010202B9002E008202B90FFE707E0409810
:101B80002B9004E0409840002B9000E0FFE72B985A
:101B9000002803D1FFE700203B9089E134980C90A6
:101BA00035980D90329833992B9A0023FEF7E0FA7E
:101BB00002460C980B460D99FEF7AAFA3191309027
:101BC000319930980843002803D1FFE700203B906B
:101BD0006EE100201190FFE71198032800D9AFE0D3
:101BE00030983199119A0B925200FEF7E9FA0346A8
:101BF00008460B99CC0022A90A190B515060119884
:101C0000C200881840688A58FF2302330021D21A84
:101C1000884108D3FFE71198C30022AAD1180020F9
:101C2000D0504860FFE71198C20022A88118805860
:101C30004968084300287ED0FFE72B981199CB0014
:101C400022AAD118D2584B6800210A91FEF790FAC7
:101C50002F912E90329833992E9A2F9BFEF788FA67
:101C6000020E090289180002119A09925200FEF729
:101C700097FA0A9B0A220892FEF77AFA349A359B61
:101C8000FEF746FA089A0A9B401D5941FEF740FAB2
:101C9000099A044608460A99803C8841D5001AAA48
:101CA0005319545158601198C300D0184068D25845
:101CB000803A884119D3FFE734980590359806900B
:101CC0002E982F99119A07925200FEF769FA024650
:101CD00005980B460699FEF71BFA02460798C400C2
:101CE00012AB18191A51416024E034983599119AB1
:101CF0000292D4001AAA13195B6812590025803287
:101D00006B41FEF735FA029A039004912E982F99B1
:101D10005200FEF745FA024603980B460499FEF777
:101D2000F7F90A06000A8218080A12AB19191A51A3
:101D30004860FFE7FFE7FFE71198401C11904BE771
:101D400000201190FFE71198032817D8FFE711989A
:101D5000C20022A88118805849680843002801D091
:101D6000FFE70BE01198032803D1FFE700203B9029
:101D70009EE0FFE71198401C1190E4E700202D90B1
:101D8000C1432C911190FFE71198032849D8FFE730
:101D90001198C20022A88118805849680843002879
:101DA0003AD0FFE71198C20012A8811849688358F9
:101DB000389A0020D21A88410DD2FFE71198C2004C
:101DC00012A9881840688958389B0022C91A904186
:101DD000009101900CE038991198C30012A8C21824
:101DE0005268C3580020C91A904100910190FFE742
:101DF00000990198309131903198309A2D992C9B0F
:101E0000D21A884107D2FFE7309831992D912C9052
:101E100011981090FFE7FFE7FFE71198401C119021
:101E2000B2E73998012810D1FFE7109800280BD1AC
:101E3000FFE723992298012250400843002803D14C
:101E4000FFE700203B9033E0FFE71098C2001AA99B
:101E5000881840688A580021803A88410DD3FFE7EE
:101E600010990804CA0022A989580902FF22D24306
:101E7000891808433A99C86011E010990804CA000B
:101E800022A989580902FF23DB43C91808431AA96C
:101E900089580843802108433A99C860FFE71098A1
:101EA000C10012A840583B9002E000203B90FFE7A1
:101EB0003B983CB0B0BD82B001900091009A01996E
:101EC000086A9043086202B0704782B001900091A6
:101ED000009A0199086A9043086202B0704782B084
:101EE00001900091009A0199C8699043C86102B0BD
:101EF000704782B001900091009A0199C86910431F
:101F0000C86102B0704782B00190009101984069A9
:101F10000099084002B0704782B00190009101988A
:101F2000C0690099084002B07047000010B588B041
:101F3000079006910020059007982C49884204D10B
:101F4000FFE70020FFF782FA0AE007987F498842FE
:101F500004D1FFE70120FFF779FA00E0FFE7FFE790
:101F600007990020049008600799486007998860E5
:101F700007980390069800680290FFF755FA029AB6
:101F8000049903460398069C64680094FFF7A8FD33
:101F9000014604980591069A516A936A1943D36AD7
:101FA0001943136B1943526B1143079A5160069AF8
:101FB0009169D369194353681943136A1943136923
:101FC000194393681943D2681143079A116007991E
:101FD0000862079800680321884306994969084305
:101FE00007990860059808B010BDC0460060004021
:101FF00083B0029001910198009002980068C00699
:10200000C00F002805D0FFE70298406A00990880B9
:1020100004E00298406A01990870FFE703B0704736
:1020200083B0029001910198009002980068C00668
:10203000C00F002805D0FFE700980088029988614A
:1020400004E00198007802998861FFE703B07047C7
:1020500080B584B0F9480121FFF75EFF002807D062
:10206000FFE7F6480121FFF74EFF002807D1FFE701
:10207000F2480221FFF747FF002833D0FFE7EF487F
:102080000221FFF722FFEC480088314909688842A5
:102090001FD9FFE72E4803900168E6484118E7483A
:1020A000FFF7BEFF0399E4480088401E0968884294
:1020B0000AD1FFE7E14802900221FFF71AFF0298D8
:1020C0000121FFF70CFFFFE721490868401C086069
:1020D00007E0DA480221FFF702FF1D4900200860EF
:1020E000FFE7FFE7D5480421FFF70DFF00281FD0C9
:1020F000FFE718480068032815D8FFE71548019046
:10210000016815484118CD48FFF772FF0198016832
:10211000491C01600068042804D3FFE70D49002032
:102120000860FFE7FFE7C5480421FFF7CEFEFFE7A1
:10213000C2483821FFF7E7FE002805D0FFE7BF4877
:102140003821FFF7B8FEFFE704B080BD006400400F
:1021500058000020540000205C00002080B5C046DC
:10216000C046C046C046C046C04680BD80B5C046D9
:10217000C04680BD024903480860034808607047B4
:102180000C2000405A5A0000A5A5000081B0009024
:102190000098002808D4FFE700991F200140012083
:1021A000884002490860FFE701B0704780E200E024
:1021B00081B00090009800280CD4FFE700991F2000
:1021C00001400120884004490860BFF34F8FBFF3EE
:1021D0006F8FFFE701B0704780E100E081B00090B1
:1021E0000098002808D4FFE700991F200140012033
:1021F000884002490860FFE701B0704700E100E055
:1022000070B582B0019000910198002814D4FFE7C6
:1022100001980321CB431840324A805801998C071A
:10222000E50EFF24AC40A043009CA401E4B2AC4006
:1022300020431940885018E001980F2420400838A6
:102240000321CB431840264A805801998D07EE0E92
:10225000FF25B540A843009DAD01EDB2B540284330
:102260002140083919408850FFE702B070BDC046D0
:1022700070B582B0019000910198002814D4FFE756
:1022800001980321CB431840164A805801998C07C6
:10229000E50EFF24AC40A043009CA401E4B2AC4096
:1022A00020431940885018E001980F242040083836
:1022B0000321CB4318400A4A805801998D07EE0E3E
:1022C000FF25B540A843009DAD01EDB2B5402843C0
:1022D0002140083919408850FFE702B070BDC04660
:1022E0001CED00E000E400E084B0039002A801804F
:1022F00001A90020087069460870FFE76846007869
:1023000002A9098888420EDAFFE70398694609782E
:10231000415C0198484001A90870FFE70098401C03
:1023200069460870EAE701A8007804B0704780B5F4
:1023300088B004A80290102100F088F900200390D2
:102340000121FEF7CBFE02990398049002220A7144
:102350007022069240220A73487306208873FFE7B2
:1023600004A8FFF7D3F8002801D0FFE7F8E7022020
:1023700001F080FB042001900121FEF7AFFE0198DF
:10238000FFF7A6F908B080BD80B582B000200190AB
:10239000FFF794F80198FFF7A5F802B080BD80B56B
:1023A000FFF7F2FFFFF7C3FF80BD000080B582B0EA
:1023B000014601A801701F4AAA2111700078002867
:1023C00005D1FFE71B4900204870887022E001A872
:1023D0000078012806D1FFE7164900204870012047
:1023E000887016E001A80078022806D1FFE711499D
:1023F00001204870002088700AE001A800780328B6
:1024000005D1FFE70B49012048708870FFE7FFE71F
:10241000FFE7FFE7074800900321FFF765FF0099FA
:10242000C87005490420088004480121FFF761FDB8
:1024300002B080BD60000020640000200064004005
:1024400080B5A2B021A900910880FEF7EDFF1D9094
:1024500016A803901C2100F0F9F80CA8049028217C
:1024600000F0F4F80BA80590042100F0EFF809A89B
:1024700006900821029100F0E9F800980088FDF725
:102480003DFF2E49FDF7FCFE01901D982C49FDF7FC
:102490006FFFFDF733FF01460198FDF7B4FEFDF72E
:1024A00053FF00F077FDFDF731FF014602981E91C2
:1024B00001210791FFF7DEF80399079A0220169091
:1024C000002008901990189017901A901B92087687
:1024D0004876FEF763FB079A08981EA90988FEF75D
:1024E0008DF9089A10461146FEF7AEF90499079A3D
:1024F000089807230D930E920A731090FEF756FA70
:102500000599079A08980A704A70FEF70FFB06991A
:10251000079A08988A70FEF7DDF9079B089A1FA8AA
:10252000027001781046FEF7BDFA089820A90880CD
:102530000988FEF7B7F922B080BDC04600007A4492
:1025400040420F0080B592B011A9039108800AA8FB
:1025500001901C2100F07AF806A80290102100F0EA
:1025600075F80B2001210591FFF784F801980221ED
:102570000A91002104910D910C910B910176417605
:10258000FFF750FA029806210891FFF771F90498B5
:10259000FFF75AF9059903980088FFF737F9FFF715
:1025A000F1F80498FFF79EF9059A05200321FEF73C
:1025B0003BFC12B080BD000080B58AB004A8019039
:1025C000182100F043F821200121FFF753F8019A68
:1025D000002010700590EC4803900C210091FEF74C
:1025E00069FC009903980722FEF7D2FC019A039830
:1025F0000D210291FEF75EFC029903980322FEF77B
:10260000C7FC0AB080BDC04680B58AB004A800905F
:10261000182100F01BF8212001210191FFF72AF871
:10262000009A019800211170059106910991089076
:10263000ED4803900E210291FEF73CFC02990398AD
:102640000422FEF7A5FC0AB080BDC04680B582B06A
:102650000190009101980099FDF7CAFD02B080BD7C
:1026600080B586B0059000200390059800903B4807
:1026700000681A49FDF77CFE0099484302903848EB
:1026800000680190FFE736480068049004980199BB
:1026900088421FD0FFE704980199884207D2FFE7DC
:1026A00001980499411A03984018039009E02D48B5
:1026B00000680499401A0199411803984018039042
:1026C000FFE70498019003980299884201D3FFE73D
:1026D00001E0FFE7D7E706B080BDC0461027000045
:1026E00080B586B0059000200390059800901B48A7
:1026F00000687D21C900FDF73BFE00994843029028
:10270000174800680190FFE7154800680490049896
:10271000019988421FD0FFE704980199884207D2A7
:10272000FFE701980499411A03984018039009E0C3
:102730000C4800680499401A019941180398401800
:102740000390FFE70498019003980299884201D30F
:10275000FFE701E0FFE7D7E706B080BD00000020FB
:1027600018E000E014E000E080B590B003A800900D
:102770003421FFF76BFF1D2001210191FEF77AFF45
:102780000099019A0020029003908A802D231B015A
:10279000CB80930605930690130607939305089341
:1027A0000990D2050A920C4A0B920C4A0C920D9099
:1027B00058220F92FEF796FA0298FEF785FA019AD0
:1027C00002990420FEF730FBFEF768FA0298FEF744
:1027D0006DFA10B080BDC046660000203C3000405D
:1027E00080B5A2B0219020A90020087000F09CF8CC
:1027F000011D40480160006800281DD4FFE73D48E6
:1028000000683D490968884206D1FFE721983B49A5
:102810000968884210D0FFE73A490888401C0880C0
:1028200021980190334800681E21FDF7C1FD0198F1
:1028300089B200F0E0FA24E02E48006800281FD595
:10284000FFE72C4800682C490968884206D1FFE759
:1028500021982A490968884212D0FFE72849088848
:10286000401C08802198009022480068401C1E21CE
:10287000FDF79EFD00981D3189B200F0BCFAFFE71C
:10288000FFE71C4800681C490968884228D0FFE718
:102890001848006818490968884210DDFFE71B489E
:1028A0000178491C01700078022807D1FFE7032056
:1028B000FFF77CFD154900200870FFE70FE0124884
:1028C0000178491C01700078022807D1FFE7022037
:1028D000FFF76CFD0C4900200870FFE7FFE7FFE7FA
:1028E000044800680449086021980449086022B03F
:1028F00080BDC046180000201C00002020000020E1
:10290000520000205000002014000020150000207C
:1029100080B5FFF751FE6420FFF7E2FE0C48FFF799
:1029200011FEFEF7D3FF80BD82B00748006801A901
:1029300008800648026806485043098840180090FD
:10294000009802B07047C0460458004010000020B4
:10295000FFFF000080B588B002A801901821FFF7A2
:1029600075FE212001210091FEF784FE0099019A55
:102970000391049100200790059106901A480F21B9
:10298000FEF798FA08B080BD001C024080B582B006
:1029900001A90020088014480F21FEF77DFA0028C5
:1029A0000ED1FFE711480088002804D1FFE79548C1
:1029B00000F002FAFFE70D490888401C08800FE08C
:1029C0000A480088002804D0FFE7002000F0F4F94E
:1029D000FFE70649088801AA108000200880FFE769
:1029E00001A8008802B080BD001C02402800002021
:1029F00080B582B076490868401C0860FFF7C6FFC2
:102A00000146744801800088022809D3FFE7714815
:102A100000881E2804D8FFE76F49012008600DE0F8
:102A20006C4800881F2804D3FFE76B49002008602A
:102A300003E0694902200860FFE7FFE76648006895
:102A40000190002834D0FFE70198012804D0FFE767
:102A50000198022830D0B6E05D4800686D490968E9
:102A6000401A0A2813D3FFE75948006869490968E2
:102A7000401A1E280BD8FFE761490868401C08600F
:102A80005E49012008605649002008600BE0554966
:102A90000868401C08605149012008604C480068E3
:102AA0004F490860FFE74A4800685A4908608AE0D1
:102AB00057490120086086E048480068012840D155
:102AC000FFE74748006800283AD0FFE74048006821
:102AD00043490968401A1F2832D3FFE73F490020C5
:102AE0000860FFF763FC3F4801683F4848433F499F
:102AF000884205D8FFE74049FF20000408601EE037
:102B000038480168384848433849401838498842AD
:102B100005D8FFE73849FF20000208600EE0314881
:102B2000016831484843334940183149884204D844
:102B3000FFE73149FF200860FFE7FFE7FFE7FFE716
:102B4000FFE72E480068012831D1FFE72B4900201C
:102B500008600120FFF72AFC294801682248484301
:102B60002249884204D8FFE72349284808601DE02D
:102B7000234801681C4848431C4940181C498842A6
:102B800004D8FFE71C49204808600EE01C48016893
:102B900015484843174940181549884204D8FFE7AB
:102BA000154918480860FFE7FFE7FFE7FFE7184807
:102BB0000068012806D1FFE71549002008600E498A
:102BC0000860FFE7FFE70C48006802B080BDC04620
:102BD0004400002038000020040000203C000020B9
:102BE0004C00002040000020ABAAAAAA555555551C
:102BF00054555555AAAAAAAA080000203000002062
:102C00002C000020FFFFFF003C3C3C000F0F0F009A
:102C1000340000204800002080B582B000200190E0
:102C2000FFF7BDFB00F09AF8FFF772FEFFF792FE88
:102C3000E120400200F06EF8FEF75CFB6421FDF736
:102C400097FBFEF713FAFFE7FEE7000080B594B0AC
:102C5000139005A8039038210191FDF7C9FA0020CF
:102C60000290049001210846FEF704FD01990398A3
:102C7000FFF7ECFC02980399139A059206900790CF
:102C80000890099003200A903248FFF74FF904900A
:102C90000498002801D0FFE7FFE714B080BDC046CC
:102CA00080B58CB000200B900A9009900890079096
:102CB0000690202001210491FEF7DCFC06A801907B
:102CC00018210091FFF7C2FC019A0498079009901F
:102CD0000F48059002210291FEF7ECF80099019847
:102CE000FFF7B4FC019A0598049907910991032113
:102CF0000391FEF7DFF80299049A0598FEF748F968
:102D00000399049A0598FEF743F90CB080BDC046BC
:102D1000000C024080B582B00190FFF7C1FF01981E
:102D2000FFF794FF0B4800900B49FFF7CEF800988F
:102D30000821FFF7DEF800981021FFF7DAF8009875
:102D40002021FFF7D6F8072000210122FEF76CF8BA
:102D500002B080BD00640040FFFF000080B582B07B
:102D600001A900200870FFE701A800781D280EDCEB
:102D7000FFE701A8027891000E4840584B4900F047
:102D800097F8FFE70198401C01A90870ECE7FFF7EE
:102D90003BFCAF20C000FFF753FBFFF7E5FC002032
:102DA0000090FDF76DFE009A01211046FDF7D6FD5B
:102DB00002B080BD0806002080B5A0B01F901EA9FB
:102DC00000200870FFE71EA800781D280CDCFFE734
:102DD0001F981EA909788A0069468850FFE71E9847
:102DE000401C1EA90870EEE768461E2100F01AF884
:102DF000002020B080BD80B5A2B0219020A8009016
:102E0000018002A801907821FDF7F2F9009A01985B
:102E100021991288920081501E2100F003F80020B1
:102E200022B080BD80B586B0049003A801800088E0
:102E3000002804D1FFE70020C043059032E002A93A
:102E400000200870FFE702A8007803A909888842DB
:102E50000EDAFFE7049802A90A7891004058134956
:102E600000F026F8FFE70298401C02A90870EAE784
:102E70000022019210461146FDF7E6FC01986421FC
:102E8000FDF710FD0198FDF711FFFDF707FF019A0F
:102E900001211046FDF762FD0198FDF7F1FD019853
:102EA0000590FFE7059806B080BDC046660000208B
:102EB00087B00690059104A802800698FF210906B4
:102EC00088430090684641880291417801910078DA
:102ED000029909024018019909040843009003A9C6
:102EE00000200870FFE703A80078172829D8FFE71B
:102EF000009803A9097888400121C9050840C00D40
:102F000001280CD1FFE7059804A90A883021514314
:102F1000411803A800784200462088520BE005982B
:102F200004A90A8830215143411803A800784200BF
:102F300014208852FFE7FFE70398401C03A908709C
:102F4000D1E707B070472021020C01D010211046B4
:102F5000020A01D010460839020901D01046091FA3
:102F6000820801D01046891E420801D0881E704791
:102F7000081A704702E008C8121F08C1002AFAD1D7
:102F800070477047002001E001C1121F002AFBD1E9
:102F900070470000F0B513B406460199FDF724FB15
:102FA00004460D4602460B4630460199FDF70EFBDE
:102FB000064601981B4B0F4600280CDA00223046CB
:102FC000FDF750FB0CD90022174B30463946FDF770
:102FD0005DFB1DD214E000223046FDF743FB08D212
:102FE0000022124B20462946FDF7F0FA04460D4612
:102FF0000EE000220C4B30463946FDF747FB07D860
:1030000000220A4B20462946FDF73CFA04460D46AD
:10301000019A69004908D20FD2072046114303B034
:10302000F0BD00000000E0BF0000E03F0000F03F06
:1030300010B583B0002001902C480090FFE72C4889
:10304000006807210840032816D0FFE729492A48CD
:1030500008602A48086026490868032210430422B1
:10306000904308600098411E0091002803D1FFE7BB
:103070000920029036E0E2E71E4B1F4C1C601F4AFD
:103080001A600020C1431E4801601C601A601D4A7E
:1030900011600068401C002806D1FFE7194800684D
:1030A000401C002803D0FFE701200190FFE700202B
:1030B00000600E480090FFE713480068C006C00F8C
:1030C00000280AD0FFE70098411E0091002803D194
:1030D000FFE70920029005E0EEE70020019001984B
:1030E0000290FFE7029803B010BDC046FFFFFF004B
:1030F00000000240180002405A5A0000A5A5000036
:1031000030000240340002401000024087B00590B9
:103110000491039201200290444801900020009005
:103120004348006807210840042803D0FFE7062031
:10313000069077E0059803994018401E400C00283F
:1031400005D0FFE704200290029806906AE0374815
:103150000190FFE737480068C006C00F00280AD07A
:10316000FFE70198411E0191002803D1FFE70920E4
:10317000069057E0EEE700200090FFE700980399E3
:10318000884221D2FFE704980099405C05990870B5
:1031900026480190FFE727480068C006C00F0028B6
:1031A0000AD0FFE70198411E0191002803D1FFE7F3
:1031B0000920069036E0EEE70598401C0590FFE7F1
:1031C0000098401C0090D9E7FFE7194800680721E4
:1031D000084001280DD0FFE7174918480860184833
:1031E00008601349086801221043062290430860D2
:1031F000EBE70E480190FFE70E480068C006C00FDD
:1032000000280AD0FFE70198411E0191002803D150
:10321000FFE70920069005E0EEE700200290029803
:103220000690FFE7069807B07047C046FFFFFF0013
:103230000000024010000240180002405A5A0000EC
:10324000A5A5000087B0059004910392012002908B
:10325000444801900020009043480068072108403E
:10326000042803D0FFE70620069078E0059803992C
:103270004018401E400C002805D0FFE704200290B3
:10328000029806906BE037480190FFE737480068E6
:10329000C006C00F00280AD0FFE70198411E019127
:1032A000002803D1FFE70920069058E0EEE7002050
:1032B0000090FFE700980399884222D2FFE7049824
:1032C00000994900405A0599088026480190FFE777
:1032D00026480068C006C00F00280AD0FFE7019802
:1032E000411E0191002803D1FFE70920069036E036
:1032F000EEE70598801C0590FFE70098401C0090C1
:10330000D8E7FFE7184800680721084001280DD0DA
:10331000FFE717491748086017480860124908680E
:1033200001221043062290430860EBE70D4801900C
:10333000FFE70E480068C006C00F00280AD0FFE76C
:103340000198411E0191002803D1FFE70920069052
:1033500005E0EEE70020029002980690FFE706984D
:1033600007B07047FFFFFF0000000240100002405E
:10337000180002405A5A0000A5A5000087B0059029
:103380000491039201200290444801900020009093
:103390004348006807210840042803D0FFE70620BF
:1033A000069078E0059803994018401E400C0028CC
:1033B00005D0FFE704200290029806906BE03748A2
:1033C0000190FFE737480068C006C00F00280AD008
:1033D000FFE70198411E0191002803D1FFE7092072
:1033E000069058E0EEE700200090FFE70098039970
:1033F000884222D2FFE70498009989004058059935
:10340000086026480190FFE726480068C006C00F04
:1034100000280AD0FFE70198411E0191002803D13E
:10342000FFE70920069036E0EEE70598001D0590BD
:10343000FFE70098401C0090D8E7FFE718480068B5
:103440000721084001280DD0FFE7174917480860F9
:103450001748086012490868012210430622904369
:103460000860EBE70D480190FFE70E480068C006D2
:10347000C00F00280AD0FFE70198411E01910028E3
:1034800003D1FFE70920069005E0EEE70020029057
:1034900002980690FFE7069807B07047FFFFFF000D
:1034A0000000024010000240180002405A5A00007A
:1034B000A5A5000081B001200090FFE71149124846
:1034C000086012480860FFE7114900200860FFE724
:1034D0000C490D4808600D480860FFE70D490020C1
:1034E00008600B480068002809D1FFE70948006818
:1034F000002803D1FFE700200090FFE7FFE70098D6
:1035000001B07047180002405A5A0000A5A50000FB
:10351000300002403400024081B001200090FFE7FB
:1035200013491448086014480860FFE70020C043AE
:1035300012490860FFE70E490E4808600E4808600F
:10354000FFE70020C0430E4908600C480068401C9B
:1035500000280AD1FFE70A480068401C002803D170
:10356000FFE700200090FFE7FFE7009801B07047F9
:10357000180002405A5A0000A5A500003000024081
:103580003400024082B0019069460020087007486C
:1035900000680199084204D0FFE7694601200870DD
:1035A000FFE76846007802B07047C046100002404E
:1035B00082B0019001200090019A0449086890436C
:1035C000086000200090009802B07047140002408C
:1035D00082B0019001200090FFE708490848086088
:1035E00008480860FFE7019A074908681043086027
:1035F00000200090009802B07047C04618000240BA
:103600005A5A0000A5A500000C00024082B00190AB
:1036100001200090FFE70849084808600848086052
:10362000FFE7019A0749086890430860002000906E
:10363000009802B07047C046180002405A5A000075
:10364000A5A500000C00024083B0029001A8017003
:1036500000210091007801280DD1FFE7FFE70E4916
:103660000E4808600E480860FFE7029A0D49086896
:10367000104308600CE0FFE7074908480860084865
:103680000860FFE7029A0749086890430860FFE76F
:10369000009803B07047C046180002405A5A000014
:1036A000A5A500000000024087B005900491039298
:1036B00001200290354801900020009034480068B5
:1036C00007210840012803D0FFE70620069059E0B3
:1036D000059803994018401E400C002805D0FFE7CC
:1036E00004200290029806904CE028480190FFE7E1
:1036F00028480068C006C00F00280AD0FFE70198DC
:10370000411E0191002803D1FFE70920069039E00E
:10371000EEE700200090FFE70098039988422CD242
:10372000FFE704980099405C0599087017480190DC
:10373000FFE718480068C006C00F00280AD0FFE75E
:103740000198411E0191002803D1FFE7092006904E
:1037500018E0EEE704980099405C059909788842E2
:1037600003D0FFE7012006900CE00598401C05906F
:10377000FFE70098401C0090CEE7002002900298DE
:103780000690FFE7069807B07047C046FFFFFF00AE
:10379000000002401000024087B00590049103929F
:1037A00001200290364801900020009035480068C2
:1037B00007210840012803D0FFE7062006905BE0C0
:1037C000059803994018401E400C002805D0FFE7DB
:1037D00004200290029806904EE029480190FFE7ED
:1037E00029480068C006C00F00280AD0FFE70198EA
:1037F000411E0191002803D1FFE7092006903BE01C
:10380000EEE700200090FFE70098039988422ED24F
:10381000FFE7049800994900405A05990880184824
:103820000190FFE718480068C006C00F00280AD0C2
:10383000FFE70198411E0191002803D1FFE709200D
:10384000069019E0EEE7049800994900405A05995E
:103850000988884203D0FFE7012006900CE0059814
:10386000801C0590FFE70098401C0090CCE70020EA
:10387000029002980690FFE7069807B07047C0468E
:10388000FFFFFF00000002401000024087B00590DB
:10389000049103920120029036480190002000908C
:1038A0003548006807210840012803D0FFE70620BB
:1038B00006905BE0059803994018401E400C0028D4
:1038C00005D0FFE704200290029806904EE02948B8
:1038D0000190FFE729480068C006C00F00280AD001
:1038E000FFE70198411E0191002803D1FFE709205D
:1038F00006903BE0EEE700200090FFE70098039978
:1039000088422ED2FFE70498009989004058059913
:10391000086018480190FFE718480068C006C00F0B
:1039200000280AD0FFE70198411E0191002803D129
:10393000FFE70920069019E0EEE704980099890056
:10394000405805990968884203D0FFE70120069096
:103950000CE00598001D0590FFE70098401C0090C2
:10396000CCE70020029002980690FFE7069807B087
:103970007047C046FFFFFF000000024010000240F9
:1039800084B00290002001902348009023480068F2
:1039900007210840022803D0FFE70620039037E004
:1039A0000298400C002805D0FFE704200190019800
:1039B00003902DE018480090FFE719480068C00602
:1039C000C00F00280AD0FFE70098411E0091002890
:1039D00003D1FFE7092003901AE0EEE702990020E7
:1039E00008600D480090FFE70D480068C006C00F52
:1039F00000280AD0FFE70098411E0091002803D15B
:103A0000FFE70920039003E0EEE701980390FFE74A
:103A1000039804B07047C046FFFFFF00000002405B
:103A20001000024082B0019001200090FFE70D4994
:103A30000D4808600D480860FFE7019B0C490868C5
:103A4000072213409043C01808600198096811408C
:103A5000884203D1FFE700200090FFE7009802B002
:103A60007047C046180002405A5A0000A5A5000041
:103A70000000024082B0019000200090FFE708495A
:103A80000848086008480860FFE7019A0749086885
:103A900007231A40984380180860009802B07047C6
:103AA000180002405A5A0000A5A500000400024078
:103AB00084B002A90870002001901948009000907D
:103AC000FFE702A80078174909680906C90F88426C
:103AD0001DD0FFE7FFE71449144808601448086048
:103AE000FFE702A802780F490868D207120E802368
:103AF0009843801808600098411E0091002805D165
:103B0000FFE7072001900198039005E0D9E7002026
:103B1000019001980390FFE7039804B07047C046F6
:103B2000FFFFFF0000000240180002405A5A000048
:103B3000A5A5000083B002900191029807494018A2
:103B40000090FFE706490748086007480860FFE75C
:103B5000019800990860002003B0704730000240CF
:103B6000180002405A5A0000A5A5000081B0044880
:103B700001680320014068460170007801B0704779
:103B800008000240010000000200000004000000E4
:103B900008000000100000002000000040000000AD
:103BA000800000000001000000020000000400008E
:103BB000000800000010000000200000004000008D
:103BC000008000000100000002000000030000006F
:103BD00004000000F83B000000000020100000007E
:103BE000742F0000083C0000100000207008000046
:103BF000842F00000000000000093D0002000000CA
:083C00000000FF0000000000BD
:04000005000000C136
:00000001FF
